{
  "_format": "hh-sol-artifact-1",
  "contractName": "CallCounter",
  "sourceName": "contracts/CallCounter.sol",
  "abi": [
    {
      "inputs": [],
      "stateMutability": "payable",
      "type": "constructor"
    },
    {
      "anonymous": false,
      "inputs": [
        {
          "indexed": true,
          "internalType": "address",
          "name": "addr",
          "type": "address"
        },
        {
          "indexed": false,
          "internalType": "uint256",
          "name": "id",
          "type": "uint256"
        }
      ],
      "name": "newCall",
      "type": "event"
    },
    {
      "inputs": [],
      "name": "call",
      "outputs": [],
      "stateMutability": "nonpayable",
      "type": "function"
    },
    {
      "inputs": [],
      "name": "getCallers",
      "outputs": [
        {
          "internalType": "address[]",
          "name": "",
          "type": "address[]"
        }
      ],
      "stateMutability": "view",
      "type": "function"
    },
    {
      "inputs": [],
      "name": "getCalls",
      "outputs": [
        {
          "internalType": "uint256",
          "name": "",
          "type": "uint256"
        }
      ],
      "stateMutability": "view",
      "type": "function"
    }
  ],
  "bytecode": "0x608060405261004c6040518060400160405280601681526020017f43616c6c20436f756e746572204465706c6f796564210000000000000000000081525061005160201b6103011760201c565b6101d4565b6100ed816040516024016100659190610152565b6040516020818303038152906040527f41304fac000000000000000000000000000000000000000000000000000000007bffffffffffffffffffffffffffffffffffffffffffffffffffffffff19166020820180517bffffffffffffffffffffffffffffffffffffffffffffffffffffffff83818316178352505050506100f060201b60201c565b50565b60008151905060006a636f6e736f6c652e6c6f679050602083016000808483855afa5050505050565b600061012482610174565b61012e818561017f565b935061013e818560208601610190565b610147816101c3565b840191505092915050565b6000602082019050818103600083015261016c8184610119565b905092915050565b600081519050919050565b600082825260208201905092915050565b60005b838110156101ae578082015181840152602081019050610193565b838111156101bd576000848401525b50505050565b6000601f19601f8301169050919050565b610779806101e36000396000f3fe608060405234801561001057600080fd5b50600436106100415760003560e01c806328b5e32b1461004657806350f2fb7f14610050578063dd8d4c401461006e575b600080fd5b61004e61008c565b005b61005861026a565b60405161006591906105c3565b60405180910390f35b610076610273565b604051610083919061053f565b60405180910390f35b600160008082825461009e919061063e565b925050819055506001339080600181540180825580915050600190039060005260206000200160009091909190916101000a81548173ffffffffffffffffffffffffffffffffffffffff021916908373ffffffffffffffffffffffffffffffffffffffff160217905550600067016345785d8a0000905047670de0b6b3a76400008261012a919061063e565b1061016a576040517f08c379a0000000000000000000000000000000000000000000000000000000008152600401610161906105a3565b60405180910390fd5b60003373ffffffffffffffffffffffffffffffffffffffff16826040516101909061052a565b60006040518083038185875af1925050503d80600081146101cd576040519150601f19603f3d011682016040523d82523d6000602084013e6101d2565b606091505b5050905080610216576040517f08c379a000000000000000000000000000000000000000000000000000000000815260040161020d90610583565b60405180910390fd5b3373ffffffffffffffffffffffffffffffffffffffff167f59575b2248b9f3c9961683d710b0f5531f2eaa955a3fcb43f5cb229c4bd85b8560005460405161025e91906105c3565b60405180910390a25050565b60008054905090565b606060018054806020026020016040519081016040528092919081815260200182805480156102f757602002820191906000526020600020905b8160009054906101000a900473ffffffffffffffffffffffffffffffffffffffff1673ffffffffffffffffffffffffffffffffffffffff16815260200190600101908083116102ad575b5050505050905090565b610397816040516024016103159190610561565b6040516020818303038152906040527f41304fac000000000000000000000000000000000000000000000000000000007bffffffffffffffffffffffffffffffffffffffffffffffffffffffff19166020820180517bffffffffffffffffffffffffffffffffffffffffffffffffffffffff838183161783525050505061039a565b50565b60008151905060006a636f6e736f6c652e6c6f679050602083016000808483855afa5050505050565b60006103cf83836103db565b60208301905092915050565b6103e481610694565b82525050565b60006103f5826105ee565b6103ff8185610611565b935061040a836105de565b8060005b8381101561043b57815161042288826103c3565b975061042d83610604565b92505060018101905061040e565b5085935050505092915050565b6000610453826105f9565b61045d818561062d565b935061046d8185602086016106d0565b61047681610732565b840191505092915050565b600061048e60148361062d565b91507f4661696c65642073656e642060726577617264600000000000000000000000006000830152602082019050919050565b60006104ce601a8361062d565b91507f436f6e7472616374206e6f7420666f756e642062616c616e63650000000000006000830152602082019050919050565b600061050e600083610622565b9150600082019050919050565b610524816106c6565b82525050565b600061053582610501565b9150819050919050565b6000602082019050818103600083015261055981846103ea565b905092915050565b6000602082019050818103600083015261057b8184610448565b905092915050565b6000602082019050818103600083015261059c81610481565b9050919050565b600060208201905081810360008301526105bc816104c1565b9050919050565b60006020820190506105d8600083018461051b565b92915050565b6000819050602082019050919050565b600081519050919050565b600081519050919050565b6000602082019050919050565b600082825260208201905092915050565b600081905092915050565b600082825260208201905092915050565b6000610649826106c6565b9150610654836106c6565b9250827fffffffffffffffffffffffffffffffffffffffffffffffffffffffffffffffff0382111561068957610688610703565b5b828201905092915050565b600061069f826106a6565b9050919050565b600073ffffffffffffffffffffffffffffffffffffffff82169050919050565b6000819050919050565b60005b838110156106ee5780820151818401526020810190506106d3565b838111156106fd576000848401525b50505050565b7f4e487b7100000000000000000000000000000000000000000000000000000000600052601160045260246000fd5b6000601f19601f830116905091905056fea2646970667358221220e983c60074d01586135bebfa56fc321bddd2daea5cef83dbb9476ff99f1184c864736f6c63430008000033",
  "linkReferences": {},
  "deployedLinkReferences": {}
}